:020000040800F2
:100000008814002099080008F5080008F508000881
:10001000F5080008F5080008F508000800000000D1
:10002000000000000000000000000000F5080008CB
:10003000F508000800000000F5080008D1010008DC
:10004000F5080008F5080008F5080008F50800089C
:10005000F5080008F5080008F5080008F50800088C
:10006000F5080008F5080008F5080008F50800087C
:10007000F5080008F5080008F5080008F50800086C
:10008000F5080008F5080008F5080008F50800085C
:10009000F5080008F5080008F5080008F50800084C
:1000A000F5080008F5080008F5080008F50800083C
:1000B000F5080008F50800080D190008F508000803
:1000C000F5080008F5080008F5080008F50800081C
:1000D000F50800081D1B0008A11C0008711D000880
:1000E000F5080008F5080008F50800080000000001
:1000F0000000000000000000000000000000000000
:1001000000000000000000005FF808F180B483B038
:1001100000AF0023FB80074B9B8BFB80054B1B8BA9
:100120009BB21A04FB88134318460C37BD465DF892
:10013000047B70470028004080B483B000AF0346C2
:100140003960FB7197F90730002B0BDA0D49FB7909
:1001500003F00F03043B3A68D2B21201D2B20B444F
:100160001A7609E0084997F907303A68D2B21201C5
:10017000D2B20B4483F800230C37BD465DF8047BF4
:10018000704700BF00ED00E000E100E080B582B004
:1001900000AF78607B68B3F1807F01D3012311E069
:1001A0000A4A7B6823F07F43013B53604FF0FF30E6
:1001B0000F21FFF7C1FF054B00229A60034B072276
:1001C0001A60002318460837BD4680BD10E000E0E5
:1001D00080B400AF064B1B68002B04D0044B1B6897
:1001E000013B034A1360BD465DF8047B704700BFC6
:1001F000CC08002080B582B000AF78600A4B1B6845
:100200000A4AA2FB03239B091846FFF7BFFF7B683E
:100210000133074A136000BF054B1B68002BFBD15D
:100220000837BD4680BD00BF00000020D34D6210DE
:10023000CC08002080B582B000AF78600A4B1B6804
:100240000A4AA2FB03239B0C1846FFF79FFF7B681B
:100250000133074A136000BF054B1B68002BFBD11D
:100260000837BD4680BD00BF0000002083DE1B4371
:10027000CC08002080B485B000AF786039600023DE
:10028000FB817B681B88FB817B682E4A934213D0DD
:100290007B682D4A93420FD07B68B3F1804F0BD01F
:1002A0007B682A4A934207D07B68294A934203D04D
:1002B0007B68284A934208D1FB8923F07003FB81B5
:1002C0003B685A88FB891343FB817B68224A93422F
:1002D0000CD07B68214A934208D0FB8923F44073F9
:1002E000FB813B68DA88FB891343FB817B68FA89D1
:1002F0001A803B689A887B689A853B681A887B6875
:100300001A857B680F4A93420FD07B680E4A93424E
:100310000BD07B68124A934207D07B68114A934204
:1003200003D07B68104A934204D13B681B7A9AB28F
:100330007B681A867B6801229A821437BD465DF875
:10034000047B7047002C0140003401400004004051
:1003500000080040000C0040001000400014004065
:1003600000400140004401400048014080B483B097
:1003700000AF78600B46FB70FB78002B08D07B68E1
:100380001B889BB243F001039AB27B681A8007E096
:100390007B681B889BB223F001039AB27B681A80AA
:1003A0000C37BD465DF8047B704700BF80B483B056
:1003B00000AF78600B467B8013467B707B78002B08
:1003C00008D07B689B899AB27B8813439AB27B687A
:1003D0009A8109E07B689B899AB27B88DB439BB258
:1003E00013409AB27B689A810C37BD465DF8047B56
:1003F000704700BF80B485B000AF78600B467B804B
:100400000023FB730023BB8100237B817B681B8A55
:100410009AB27B881340BB817B689B899AB27B88A8
:1004200013407B81BB89002B05D07B89002B02D038
:100430000123FB7301E00023FB73FB7B1846143799
:10044000BD465DF8047B704780B483B000AF786030
:100450000B467B807B88DB439AB27B681A820C3721
:10046000BD465DF8047B704780B485B000AF78600E
:100470007B685B79FB737B68DB78BB737B681B797C
:100480007B737B689B783B733B7B022B02D93B7B66
:100490000A2B01D9002316E0BA7B7B7BD31A182BD9
:1004A0000BDD7B7B002B02D1FB7B012B05D93B7B3A
:1004B0000A2B01D1002306E004E03B7B032B01D192
:1004C000002300E0012318461437BD465DF8047B85
:1004D000704700BF80B584B000AF78607B685B79FF
:1004E000FB737B68DB78BB737B681B797B737B68F2
:1004F0009B783B737868FFF7B7FF0346002B2FD03C
:100500007B6801221A72FB7B0133FB73FB7B182B88
:1005100018D10023FB737B7B01337B737B7B072B21
:1005200001D100237B733B7B013B114AD35CBA7B37
:100530009A4204D10023BB733B7B01333B73BB7BEB
:100540000133BB737B683A7B9A707B68FA7B5A7184
:100550007B68BA7BDA707B687A7B1A71012303E0CF
:100560007B6800221A72002318461037BD4680BDF2
:1005700098E7000880B485B000AF7860396079688A
:10058000564BA3FB01235A0913461B019B1A9B00E0
:10059000CA1AD2B23B68DA717B68504AA2FB0323C5
:1005A0005B097B6079684D4BA3FB01235A09134615
:1005B0001B019B1A9B00CA1AD2B23B689A717B68D6
:1005C000464AA2FB03235B097B607968444BA3FB8B
:1005D00001231A0913465B001344DB00CA1AD2B286
:1005E0003B685A717B683E4AA2FB03231B09FB81CF
:1005F000FB899A1D3B4B82FB030153189910D317BB
:10060000C91A0B46DB005B1AD11ACAB23B681A71D1
:1006100000237B7301237B7240F26D137B817B7B14
:1006200003F00303002B14D14FF4B7737B817B7B62
:10063000002B05D07B7B642B02D07B7BC82B08D1A1
:100640007B7A013B7B727B7A002B02D040F26D13E8
:100650007B81FA897B899A420DD200BF7B7B9BB25A
:1006600003F5FA639AB23B681A807B8903F00103B1
:10067000002B0ED007E0FA897B89D31AFB817B7BA4
:1006800001337B73C8E7FB893A2B02D9FB8901331D
:10069000FB8101233B720AE03B7A013B124AD35CA7
:1006A0009BB2FA89D31AFB813B7A01333B723B7AC6
:1006B000013B0D4AD35C9BB2FA899A42ECD23B686B
:1006C0003A7A9A70FB89DBB20133DAB23B68DA70AE
:1006D0001437BD465DF8047B704700BF8988888861
:1006E000ABAAAAAA9324499298E7000880B584B0DF
:1006F00000AF786000BFFFF709FD0346FB60FFF71E
:1007000005FD03461A46FB689342F4D1F868796800
:10071000FFF730FF7868FFF7DDFE0123184610373A
:10072000BD4680BD80B500AF154A154B1B6843F030
:10073000010313601249124B5A68124B13404B606D
:100740000F4A0F4B1B6823F0847323F4803313602C
:100750000B4A0B4B1B6823F480231360084A084B99
:100760005B6823F4FE035360054B4FF41F029A604D
:1007700000F00CF8044B4FF000629A6080BD00BF9F
:10078000001002400000FFF800ED00E080B500AF6F
:1007900000F002F880BD00BF80B483B000AF00233A
:1007A0007B6000233B603A4A394B1B6843F480333B
:1007B0001360374B1B6803F400333B607B680133E5
:1007C0007B603B68002B03D17B68B3F5A06FF0D151
:1007D0002F4B1B6803F40033002B02D001233B6036
:1007E00001E000233B603B68012B4BD1294A294B98
:1007F0001B6843F010031360264A264B1B6823F046
:1008000003031360234A234B1B6843F00203136066
:100810001F4A1F4B5B6853601D4A1D4B5B6853604A
:100820001B4A1B4B5B6843F480635360184A184BA8
:100830005B6823F47C135360154A154B5B6843F4E3
:10084000E8135360124A124B1B6843F08073136025
:1008500000BF0F4B1B6803F00073002BF9D00C4A4C
:100860000B4B5B6823F003035360094A084B5B683A
:1008700043F00203536000BF054B5B6803F00C03B9
:10088000082BF9D10C37BD465DF8047B704700BFDB
:10089000001002400020024080B582B000AF104B33
:1008A0007B60104B3B6007E03B681A1D3A607A683A
:1008B000111D796012681A603B680B4A9342F3D3AA
:1008C0000A480B494FF000028842B8BF40F8042B99
:1008D000FADBFFF727FF00F021F90837BD4680BD9E
:1008E00038F3000800000020CC080020CC080020CD
:1008F0008810002080B400AFFEE700BF80B489B04C
:1009000000AF786039600023FB6100233B61002366
:10091000BB610023FB6000237B610023BB603B685D
:10092000DB7803F00F03FB613B68DB7803F0100317
:10093000002B05D03B689B781A46FB691343FB618B
:100940003B681B88DBB2002B44D07B681B687B6153
:100950000023BB6138E0BB69012202FA03F3FB60AC
:100960003B681B881A46FB6813403B613A69FB6889
:100970009A4226D1BB699B00FB60FB680F2202FAFA
:1009800003F3BB60BB68DB437A6913407B61FB68A0
:10099000FA6902FA03F37A6913437B613B68DB78F7
:1009A000282B05D1BB6901229A407B685A6108E077
:1009B0003B68DB78482B04D1BB6901229A407B68F5
:1009C0001A61BB690133BB61BB69072BC3D97B6863
:1009D0007A691A603B681B88FF2B4AD97B685B6881
:1009E0007B610023BB613EE0BB6908331A460123EB
:1009F0009340FB603B681B881A46FB6813403B61D1
:100A00003A69FB689A422BD1BB699B00FB60FB688B
:100A10000F2202FA03F3BB60BB68DB437A69134021
:100A20007B61FB68FA6902FA03F37A6913437B611D
:100A30003B68DB78282B07D1BB6908331A460123B2
:100A400003FA02F27B685A613B68DB78482B07D1D6
:100A5000BB6908331A46012303FA02F27B681A6164
:100A6000BB690133BB61BB69072BBDD97B687A6960
:100A70005A602437BD465DF8047B704780B485B06A
:100A800000AF78600B467B800023FB737B689A681D
:100A90007B881340002B02D00123FB7301E000236D
:100AA000FB73FB7B18461437BD465DF8047B70472B
:100AB00080B485B000AF78600B467B800023FB7369
:100AC0007B68DA687B881340002B02D00123FB731C
:100AD00001E00023FB73FB7B18461437BD465DF82D
:100AE000047B704780B483B000AF78600B467B8096
:100AF0007A887B681A610C37BD465DF8047B7047C5
:100B000080B483B000AF78600B467B807A887B68C6
:100B10005A610C37BD465DF8047B704780B586B0DE
:100B200000AF00F0DFFC00F0C5FD9648964900F0EC
:100B3000BBFC6420FFF75EFB9248944900F0B4FCD4
:100B40009048934900F0B0FC8E48924900F0ACFC0C
:100B500000F05AFE8B48904900F0A6FC6420FFF795
:100B600049FB00F013FE87488C4900F09DFC64208F
:100B7000FFF740FB00F07CFE8248894900F094FCBE
:100B80008048884900F090FC4FF47A70FFF732FB00
:100B90007C48854900F088FC4FF47A70FFF74AFBE7
:100BA0007848824900F080FC81480221FFF79AFFD3
:100BB0004FF47A70FFF71EFB7D480221FFF7A0FF7C
:100BC00070487C4900F070FC79484FF40041FFF711
:100BD00089FF4FF47A70FFF70DFB75484FF4004121
:100BE000FFF78EFF6748744900F05EFC73484FF4CE
:100BF0008071FFF777FF4FF47A70FFF7FBFA6F48C9
:100C00004FF48071FFF77CFF00F092FE5D486C4965
:100C100000F04AFC4FF4FA70FFF7ECFA00F0AAFE7D
:100C20005848684900F040FC674B1B78002B06D001
:100C300000F012FF5348654900F036FC07E06448B5
:100C4000644900F031FC4F48634900F02DFC4FF43B
:100C5000FA70FFF7CFFA4B48604900F025FC00F02E
:100C6000C9FE48485E4900F01FFC00F083FE5D4B62
:100C70001B68002B04D05B4B1B680F2B40F3E183F8
:100C8000584B1B68002B10D147F23050FFF7B2FAD7
:100C90003C48554900F008FC4D48544900F004FC1C
:100CA0004FF4FA70FFF7A6FA0BE036484E4900F011
:100CB000FBFB47484D4900F0F7FB4FF4FA70FFF794
:100CC00099FA30484A4900F0EFFB01F065F9034614
:100CD0003B61484848493A6905F0A6FC294847491C
:100CE00000F0E2FB2748434900F0DEFB2548294994
:100CF00000F0DAFB4FF4FA70FFF77CFA2148404924
:100D000000F0D2FB01F0DEF84FF4FA70FFF772FA50
:100D10001C483C4900F0C8FB04F02CFA04F042FAED
:100D20000246394B1A60384B1B68002B13D0364BE8
:100D30001B68364830491A4605F076FC114834499C
:100D400000F0B2FB0F48314900F0AEFB0D481149ED
:100D500000F0AAFB03E00B482E4900F0A5FB04F0CD
:100D6000EBFA03461A46284B1A60274B1B68DAB287
:100D7000254B1B681B0A9A4250D00248264900F0B6
:100D800093FB7DE000480040A4E70008B8E70008B6
:100D9000C8E70008D0E70008D4E70008E4E7000847
:100DA000F8E7000808E8000814E8000820E8000850
:100DB000000C01402CE8000838E800080008014059
:100DC00044E8000854E80008D80800207CE800083F
:100DD0000038014098E80008B4E80008D0E80008AE
:100DE000E4E80008D4080020F8E8000820E900083A
:100DF00048E90008100A002064E9000868E90008D2
:100E00007CE9000898E90008EC0F0020F8080020B1
:100E1000BCE90008CCE90008E8E900087E487F4901
:100E200000F042FB04F05AFB03461A467C4B1A8042
:100E300079487C4900F038FB794B1B887A487B491C
:100E40001A4605F0F1FB7448774900F02DFB04F0D9
:100E50002FFB03461A46764B1A806F48754900F0FF
:100E600023FB734B1B88744870491A4605F0DCFB62
:100E70006948714900F018FB6748704900F014FB9D
:100E80004FF4FA70FFF7B6F963486D4900F00CFBB8
:100E900001200A2101F056F80346FB6069486349C6
:100EA000FA6805F0C1FB5C48674900F0FDFA5A4852
:100EB000644900F0F9FA5848604900F0F5FA4FF437
:100EC000FA70FFF797F95448604900F0EDFA0020F6
:100ED0000A2101F037F80346BB605D485349BA6800
:100EE00005F0A2FB4C485B4900F0DEFA4A4858493D
:100EF00000F0DAFA4848514900F0D6FA4FF4FA7097
:100F0000FFF778F94448544900F0CEFA534B1B6878
:100F1000002B40D04048524900F0C6FA3E485149A3
:100F200000F0C2FA5048514905F038FC5048514988
:100F300005F034FC5048514905F030FC5048514907
:100F400005F02CFC5048514905F028FC5048514907
:100F500005F024FC5048514905F020FC474B1B7814
:100F6000002B31D02C484E4900F09EFA2A484D49BA
:100F700000F09AFA2848414900F096FA26484A4972
:100F800000F092FA2448414900F08EFA22482B4999
:100F900000F08AFA18E02048444900F085FA00225F
:100FA000314B1A700022324B1A700022324B1A70E9
:100FB0000022334B1A700022334B1A700022344B3C
:100FC0001A700022344B1A704FF4FA70FFF712F9BE
:100FD000374B1B78002B00F0CD810F48354900F0CE
:100FE00063FA0D48324900F05FFA0B48324900F0CD
:100FF0005BFA0948314900F057FA07480F4900F0F9
:1010000053FA2F4B1B68002B5ED103482D4900F08B
:101010004BFA00F021FDB1E10048004008EA000869
:10102000F00F002028EA0008200A002064E90008E8
:10103000A80D002038EA0008340A0020D0E7000894
:1010400044EA0008580A002060EA000870EA000834
:10105000680A00208CEA00089CEA00089C0900202D
:10106000BCEA0008D0EA0008A00900200C09002012
:10107000B00900201C090020C00900202C09002014
:10108000D00900203C090020E00900204C09002084
:10109000F00900205C090020000A00206C090020F3
:1010A000F0EA000814EB000820EB00082CEB000825
:1010B000D808002040EB000858EB0008E8080020A2
:1010C000080900205CEB00088648874900F0ECF92D
:1010D0008648874900F0E8F9C820FFF78BF8834875
:1010E000844900F0E1F9C820FFF784F87F4882497D
:1010F00000F0DAF9C820FFF77DF87C487F4900F05E
:10110000D3F97A487E4900F0CFF978487D4900F05C
:10111000CBF976487C4900F0C7F974487B4900F068
:10112000C3F972487A4900F0BFF97048794900F074
:10113000BBF96E48784900F0B7F96C48774900F080
:10114000B3F96A48764900F0AFF96848754900F08C
:10115000ABF96648744900F0A7F96448734900F098
:10116000A3F96248724900F09FF96048714900F0A4
:101170009BF95E48704900F097F95C486F4900F0B0
:1011800093F95A486E4900F08FF958486D4900F0BC
:101190008BF956486C4900F087F954486B4900F0C8
:1011A00083F952486A4900F07FF95048694900F0D4
:1011B0007BF94E48684900F077F94C48674900F0E0
:1011C00073F94A48664900F06FF94848654900F0EC
:1011D0006BF900237B6100237B6112E062484FF4CE
:1011E0008071FFF77FFC1920FFF704F85E484FF489
:1011F0008071FFF785FC1920FEF7FCFF7B69013346
:101200007B617B69272BE9DD3648584900F04CF9B2
:1012100034483B4900F048F932483A4900F044F973
:101220003048394900F040F92E48384900F03CF97F
:101230002C48374900F038F92A48364900F034F98B
:101240002848354900F030F92648344900F02CF997
:101250002448334900F028F92248324900F024F9A3
:101260002048314900F020F91E48304900F01CF9AF
:101270001C482F4900F018F91A482E4900F014F9BB
:1012800018482D4900F010F916482C4900F00CF9C7
:1012900014482B4900F008F912482A4900F004F9D3
:1012A0001048294900F000F90E48284900F0FCF8E0
:1012B0000C48274900F0F8F80A48264900F0F4F8ED
:1012C0000848254900F0F0F80648244900F0ECF8F9
:1012D0000448234900F0E8F80248254900F0E4F802
:1012E0004CE000BF0048004070EB000800380140AF
:1012F00084EB0008B0EB0008F4EB00081CEC0008DD
:10130000C8E700083CEC00082C09002044EC000869
:101310003C0900204CEC00084C09002054EC00086B
:101320005C0900205CEC00086C09002064EC0008FB
:101330000C0900206CEC0008200A002074EC000866
:10134000340A00207CEC0008480A002084EC0008E5
:10135000680A00208CEC0008100A002094EC0008B9
:10136000580A00209CEC000800080140A8EC000886
:10137000D0E700083848394900F096F84FF4FA7081
:10138000FEF738FF3448364900F08EF800F032FBA3
:10139000344800F049FB344800F046FB334800F085
:1013A00043FB314800F040FB314800F03DFB2E4844
:1013B00000F03AFB2F4800F037FB2B4800F034FBDD
:1013C0002D4800F031FB284800F02EFB2B4800F0A0
:1013D0002BFB254800F028FB294800F025FB22487C
:1013E00000F022FB274800F01FFB1F4800F01CFB09
:1013F000254800F019FB1C4800F016FB234800F0BC
:1014000013FB194800F010FB214800F00DFB1648B3
:1014100000F00AFB1F4800F007FB134800F004FB34
:101420001D4800F001FB1D4800F0FEFA4FF4FA7071
:10143000FEF7E0FE08481A4900F036F8194B012281
:101440001A604EF66020FEF7D5FE164B1B6801337E
:10145000144A136009E400BF00480040C8EC0008CB
:10146000E4EC0008A0090020F8EC0008000A0020C5
:10147000B0090020C0090020D0090020E0090020A8
:10148000F0090020200A0020340A0020480A002029
:10149000680A0020100A0020580A0020FCEC00080E
:1014A00000ED0008D408002080B582B000AF78605D
:1014B000396010E000BF7868802101F083FB0346AB
:1014C000002BF8D03B685A1C3A601B789BB27868B6
:1014D000194601F055FB3B681B78002BEAD1083711
:1014E000BD4680BD80B500AF00F098FD4FF4803060
:1014F00000F0C2FD00BF312000F0E0FF0346002BEA
:10150000F9D0002000F040FE002000F075FE4FF4FE
:10151000806000F055FE4FF4804000F089FE4FF4EB
:1015200080304FF4E01100F0D5FD012000F0F0FD17
:1015300000BF392000F0C2FF0346002BF9D0022083
:1015400000F0F6FD00BF00F00FFE0346082BFAD1B5
:1015500080BD00BF90B587B000AF3C4684E80F0067
:1015600044F20400012100F031FF4FF48063BB829C
:101570000323BB750423FB7507F114030E481946BA
:10158000FFF7BCF94FF40073BB820323BB7518232C
:10159000FB7507F1140308481946FFF7AFF93B46FE
:1015A0000648194601F0CAF90448012101F080FA01
:1015B0001C37BD4690BD00BF000801400038014007
:1015C00090B585B000AF3C4684E80F0004200121AF
:1015D00000F0FCFE4FF40030012100F015FF134B2A
:1015E00008221A80114B03229A70104B0422DA70E1
:1015F0000F480E49FFF782F90C4B04221A800B4B5F
:1016000003229A70094B1822DA7009480749FFF73C
:1016100075F93B460748194601F090F90548012144
:1016200001F046FA1437BD4690BD00BFD80F002028
:10163000000801400044004090B585B000AF3C4632
:1016400084E80F000820012100F0C0FE4FF4802044
:10165000012100F0D9FE144B4FF400621A80124BA6
:1016600003229A70104B0422DA7010480E49FFF7DB
:1016700045F90D4B4FF480621A800B4B03229A7090
:10168000094B1822DA7009480749FFF737F93B463A
:101690000748194601F052F90548012101F008FAFE
:1016A0001437BD4690BD00BFD80F0020000C01408C
:1016B0000048004080B500AF2F4B4FF416521A601F
:1016C0002D4B00229A802C4B0022DA802A4B0022DC
:1016D0001A81294B00229A81274B0C225A81264BD2
:1016E0000FCBFFF737FF244B0FCBFFF769FF224BE0
:1016F0000FCBFFF7A1FF214B25221A701F4B0022B1
:101700005A701E4B00229A701C4B0122DA701B4843
:1017100003F0FAFE194B26221A70184B00225A7059
:10172000164B01229A70154B0122DA70134803F010
:10173000EBFE124B27221A70104B00225A700F4BEF
:1017400002229A700D4B0122DA700C4803F0DCFE85
:101750000B4840F22551012201F0CAF9094840F234
:101760002551012201F0C4F9074840F22551012218
:1017700001F0BEF980BD00BFDC0F00202810002062
:1017800000380140004400400048004080B582B06D
:1017900000AF1C20012100F019FE4FF48043BB80F4
:1017A0000423FB710323BB713B1D15481946FFF74A
:1017B000A5F80223BB800323BB711023FB713B1DE3
:1017C0000F481946FFF79AF84FF40043BB800323F4
:1017D000BB711023FB713B1D09481946FFF78EF8BA
:1017E0004FF48073BB800323BB711023FB713B1D3F
:1017F00004481946FFF782F80837BD4680BD00BF90
:10180000000C01400008014080B582B000AF1E23EB
:101810003B7100237B710123BB710123FB713B1DD5
:10182000184603F071FE0420012100F0EDFD0E4B7F
:1018300014229A800C4B48F6A0421A800A4B0022D0
:10184000DA80094B00225A8008480749FEF712FD4A
:10185000064801210122FEF7A9FD04480121FEF7F7
:1018600085FD0837BD4680BDD80A0020000800402D
:1018700080B586B000AF4FF40170012100F0A6FDE5
:101880004FF4004000F0D4FC03233B800023FB70A6
:101890003B461C481946FFF731F81B4800F048FE4C
:1018A00000237B6000233B7200237B724FF4602394
:1018B000FB6000233B6101233B753B1D1248194629
:1018C00000F070FE1048012100F0BEFE0E4800F04E
:1018D000D7FE00BF0C4800F0E3FE0346002BF9D111
:1018E000094800F0F5FE00BF074800F001FF03467D
:1018F000002BF9D10448012100F012FF1837BD4632
:1019000080BD00BF000801400024014080B500AF49
:1019100006480121FEF76EFD0346002B05D0034863
:101920000121FEF791FD04F047FD80BD0008004055
:1019300080B582B000AF00200A4902F06DFC03467A
:10194000FB71FB79002B04D107480849FFF7ACFD78
:1019500004E005480649FFF7A7FD00BF0837BD466C
:1019600080BD00BFE40A00200048004008ED0008E8
:101970001CED000880B5ADF5147D00AF07F1240320
:10198000C7F84C32D7F84C021449012202F06EFC21
:10199000034687F84B3297F84B32002B04D010489F
:1019A0001049FFF781FD15E006E03B1D18460E4982
:1019B0000E4A0F4B04F05EFE3B1D18462021D7F85F
:1019C0004C2203F0A5FB0346002BEED1D7F84C02C6
:1019D00003F05EF907F51477BD4680BD38ED0008C9
:1019E0000038014098E8000844ED0008D8080020BD
:1019F000E808002080B582B000AF094809491222EA
:101A000002F034FC0346FB71054BDB6804481946C1
:101A100003F052F90346FB710837BD4680BD00BF95
:101A2000B40D00204CED000880B584B000AF7860A4
:101A3000786804F011FF024607F108030548796849
:101A400002F0E8FE0346FB73024803F05FF810372C
:101A5000BD4680BDB40D002080B500AF11481249CD
:101A6000FFF722FD6420FEF7C5FB0E480F49FFF784
:101A70001BFD0C480E49FFF717FD0A480D49FFF7FB
:101A800013FD08480C49FFF70FFD06480B49FFF707
:101A90000BFD6420FEF7AEFB02480949FFF704FD89
:101AA00080BD00BF0038014054ED000874ED00080F
:101AB000D808002088ED0008E80800208CED000818
:101AC00094ED0008B0B5ADF50C7D00AF3B1D18607E
:101AD00007F1080318461049062202F0C7FB034627
:101AE000002B14D13B1D186804F0B6FE054607F123
:101AF00008023B1D07F50B74104619682A46234659
:101B000002F088FE07F10803184603F0C1F807F554
:101B10000C77BD46B0BD00BF38ED000880B584B07D
:101B200000AF4F4B1B889BB203F02003002B00F04B
:101B300094804B4A4A4B1B889BB223F020039BB2F4
:101B40001380474801F02EF80346FB80FB880A2BE0
:101B500078D1444B1B785A1CD1B2424A11701A46B4
:101B6000414B0021995440487C2104F0B1FD0346CB
:101B7000002B2FD03C483D4904F0F4FF0346002BD6
:101B800028D039483A4905F0FDF8F8600023BB60D9
:101B90001CE0BB68012B11D1364803F0F9F9F86855
:101BA000FFF790FF34483549FFF77EFC3248F9686B
:101BB000FFF77AFC30483249FFF776FC00202C49C9
:101BC00005F0E0F8F860BB680133BB60FB68002BF0
:101BD000DFD133E024482B4904F0C4FF0346002B37
:101BE00010D025482849FFF75FFC28480221FEF75E
:101BF00079FF26484FF40041FEF774FF244B012281
:101C00001A601BE01848234904F0ACFF0346002B80
:101C100010D019482049FFF747FC1D4B00221A60DD
:101C20001A480221FEF76CFF18484FF40041FEF7F6
:101C300067FF03E019480C49FFF736FC094B002207
:101C40001A700AE0074B1B785A1CD1B2054A117072
:101C50001A46FB88D9B2044B99541037BD4680BD53
:101C600000380140780A0020F40F0020ACED000895
:101C7000B0ED000838ED000800480040B4ED000861
:101C8000D0E70008D8ED0008E8ED0008000C01409E
:101C900008090020FCED000810EE00080044004098
:101CA00080B582B000AF294B1B889BB203F02003A4
:101CB000002B48D0254A254B1B889BB223F02003DC
:101CC0009BB21380214800F06DFF0346FB80FB8828
:101CD000FF2B03D01E4B1B78082B02D91C4B002274
:101CE0001A701B4B1B785A1CD1B2194A11701A4634
:101CF000FB88D9B2174B9954154B1B78082B22D16E
:101D0000144B1B78FF2B1ED1124B9B789BB21B02EE
:101D10009AB2104BDB789BB213449AB20E4B1A80E6
:101D20000D4B1B880D480E491A4604F07DFC0D48EA
:101D30000D49FFF7B9FB0B480849FFF7B5FB094808
:101D40000A49FFF7B1FB0837BD4680BD004400409B
:101D5000790A0020AC0D0020E20A0020480A002089
:101D600064E900080048004028EE0008D0E70008B9
:101D700080B58AB008AF364B1B889BB203F02003B6
:101D8000002B61D0324A324B1B889BB223F02003D8
:101D90009BB213802E4800F005FF0346FB80FB88B2
:101DA0002C2B05D12B4B1B780133DAB2294B1A703F
:101DB000FB880A2B3DD12848284904F0D3FE03466E
:101DC000002B25D0234B1B780A2B21D9244B0093C1
:101DD000244B0193244B0293244B0393244B0493F1
:101DE000244B0593244B06931B482449244A254B36
:101DF00004F040FC0246244B1A60234B1B68002B66
:101E000003D0224B01221A6002E0204B00221A600C
:101E10001F4B1B785A1CD1B21D4A11701A460E4B2B
:101E2000002199541A4B00221A700A4B00221A7092
:101E30000AE0174B1B785A1CD1B2154A11701A468A
:101E4000FB88D9B2044B99540837BD4680BD00BF0A
:101E5000004800407B0A0020140D002038EE0008E6
:101E60002C0900203C0900204C0900205C090020BE
:101E70007C0900208C0900206C09002040EE00083D
:101E80000C0900201C0900202C1000209C090020B7
:101E90007A0A002080B483B000AF0346FB7100BF14
:101EA000074B1B889BB203F04003002BF8D0044B78
:101EB000FA7992B29A800C37BD465DF8047B704780
:101EC0000044004080B500AFFF20FFF7E3FF012092
:101ED000FFF7E0FF8620FFF7DDFF0020FFF7DAFFC6
:101EE0000020FFF7D7FF0020FFF7D4FF0020FFF707
:101EF000D1FF0020FFF7CEFF7920FFF7CBFF80BD99
:101F000080B582B000AF0346FB71FB790C481946DF
:101F10000122072300F020FC0948012100F000FC09
:101F200000BF0748022100F0EFFC0346002BF8D069
:101F3000034800F0DBFC034618460837BD4680BD69
:101F40000024014080B584B000AF03460A46FB710F
:101F50001346BB710023FB600023FB720EE0FB798C
:101F60001846FFF7CDFF03461A46FB681344FB6093
:101F70000520FEF73FF9FB7A0133FB72FA7ABB7951
:101F80009A42ECD3BB79FA68B2FBF3F39BB21846E2
:101F90001037BD4680BD00BF80B584B000AF0023C0
:101FA000FB730023BB6000237B6000233B601FE0CA
:101FB00002E0BB680133BB6016484FF48041FEF776
:101FC0005DFD0346002BF4D002E07B6801337B60AB
:101FD00010484FF48041FEF751FD0346002BF4D129
:101FE0007A68BB6813440C4A934201D90123FB73FE
:101FF000FB7B002BDCD0BB68642202FB03F2796818
:10200000BB680B44B2FBF3F33B603B6818461037E8
:10201000BD4680BD000C01407FC3C90180B400AF44
:10202000134A134B1B6843F0010313601049104B14
:102030005A68104B13404B600D4A0D4B1B6823F040
:10204000847323F480331360094A094B1B6823F41B
:1020500080231360064A064B5B6823F4FE0353603B
:10206000034B4FF41F029A60BD465DF8047B704736
:10207000001002400000FFF880B483B000AF786029
:10208000134A134B1B6823F480331360104A104B20
:102090001B6823F4802313607B68B3F5803F03D073
:1020A000B3F5802F07D00DE0094A094B1B6843F4B4
:1020B0008033136006E0064A054B1B6843F4A023F7
:1020C000136000BF0C37BD465DF8047B704700BF4E
:1020D0000010024080B485B000AF78603960002302
:1020E000FB600A4B5B68FB60FB6823F47C13FB60BE
:1020F0007A683B681343FA681343FB60034AFB6842
:1021000053601437BD465DF8047B704700100240F1
:1021100080B483B000AF0346FB71044AFB791360BF
:102120000C37BD465DF8047B704700BF600042423B
:1021300080B485B000AF78600023FB60094B5B681A
:10214000FB60FB6823F00303FB60FA687B681343C2
:10215000FB60044AFB6853601437BD465DF8047B9E
:10216000704700BF0010024080B400AF054B5B68B1
:10217000DBB203F00C03DBB21846BD465DF8047B0E
:10218000704700BF0010024080B485B000AF786097
:102190000023FB60094B5B68FB60FB6823F0F003E6
:1021A000FB60FA687B681343FB60044AFB6853607A
:1021B0001437BD465DF8047B704700BF0010024035
:1021C00080B485B000AF78600023FB60094B5B688A
:1021D000FB60FB6823F4E063FB60FA687B681343F1
:1021E000FB60044AFB6853601437BD465DF8047B0E
:1021F000704700BF0010024080B485B000AF786027
:102200000023FB60094B5B68FB60FB6823F46053B1
:10221000FB607B68DB00FA681343FB60034AFB68E2
:1022200053601437BD465DF8047B704700100240D0
:1022300080B485B000AF78600023FB60094B5B6819
:10224000FB60FB6823F44043FB60FA687B68134340
:10225000FB60044AFB6853601437BD465DF8047B9D
:10226000704700BF0010024080B487B000AF7860B4
:1022700000237B6100233B610023FB600023BB60E4
:102280004D4B5B6803F00C037B617B69042B07D02B
:10229000082B09D0002B34D17B68484A1A6034E0FF
:1022A0007B68464A1A6030E0434B5B6803F4701366
:1022B0003B61414B5B6803F48033FB603B699B0CE3
:1022C00002333B61FB68002B06D13B693C4A02FBB1
:1022D00003F27B681A6013E0374B5B6803F400334A
:1022E000002B06D03B69364A02FB03F27B681A607A
:1022F00006E03B69314A02FB03F27B681A6004E0A6
:1023000003E07B682D4A1A6000BF2B4B5B6803F02B
:10231000F0037B617B691B097B612A4A7B6913445B
:102320001B78DBB2BB607B681A68BB68DA407B68ED
:102330005A60214B5B6803F4E0637B617B691B0A95
:102340007B61204A7B6913441B78DBB2BB607B68EE
:102350005A68BB68DA407B689A60174B5B6803F485
:1023600060537B617B69DB0A7B61164A7B6913449E
:102370001B78DBB2BB607B685A68BB68DA407B685D
:10238000DA600D4B5B6803F440437B617B699B0B18
:102390007B610D4A7B6913441B78DBB2BB607B68B1
:1023A000DA68BB68B2FBF3F27B681A611C37BD4682
:1023B0005DF8047B704700BF0010024000127A00F5
:1023C00000093D00140000202400002080B483B0E8
:1023D00000AF78600B46FB70FB78002B06D00949F4
:1023E000084B9A697B6813438B6106E00549054BEE
:1023F0009A697B68DB4313408B610C37BD465DF8FF
:10240000047B70470010024080B483B000AF786056
:102410000B46FB70FB78002B06D00949084BDA69A4
:102420007B681343CB6106E00549054BDA697B689D
:10243000DB431340CB610C37BD465DF8047B70472E
:102440000010024080B483B000AF78600B46FB7090
:10245000FB78002B06D00949084BDA687B681343E8
:10246000CB6006E00549054BDA687B68DB43134027
:10247000CB600C37BD465DF8047B7047001002400E
:1024800080B483B000AF78600B46FB70FB78002B04
:1024900006D00949084B1A697B6813430B6106E0B3
:1024A0000549054B1A697B68DB4313400B610C3708
:1024B000BD465DF8047B70470010024080B487B0D1
:1024C00000AF0346FB710023FB6000237B61002308
:1024D000FB74FB795B09DBB2FB60FB68012B03D16A
:1024E000124B1B687B6109E0FB68022B03D10F4B89
:1024F0001B6A7B6102E00D4B5B6A7B61FB7903F039
:102500001F03FB60FB687A6922FA03F303F00103FF
:10251000002B02D00123FB7401E00023FB74FB7C41
:1025200018461C37BD465DF8047B7047001002401A
:1025300080B582B000AF78607B68174A93420AD1B9
:102540004FF400700121FFF77DFF4FF40070002170
:10255000FFF778FF1CE07B68104A93420AD14FF4E2
:1025600080600121FFF76EFF4FF480600021FFF7CC
:1025700069FF0DE07B680A4A934209D14FF400409D
:102580000121FFF75FFF4FF400400021FFF75AFFE2
:102590000837BD4680BD00BF00240140002801402F
:1025A000003C014080B485B000AF78603960002302
:1025B000FB600023FB727B685B68FB60FB6823F4B5
:1025C000702323F48073FB603B681A683B681B79B7
:1025D0001B021343FA681343FB607B68FA685A6076
:1025E0007B689B68FB60FA68164B1340FB603B6896
:1025F000DA683B689B681A433B685B795B0013436E
:10260000FA681343FB607B68FA689A607B68DB6A50
:10261000FB60FB6823F47003FB603B681B7C013BA1
:10262000DAB2FB7A1343FB72FB7A1B05FA68134399
:10263000FB607B68FA68DA621437BD465DF8047B9C
:10264000704700BFFDF7F1FF80B483B000AF786042
:102650000B46FB70FB78002B06D07B689B6843F031
:1026600001027B689A6005E07B689B6823F00102A9
:102670007B689A600C37BD465DF8047B704700BFED
:1026800080B483B000AF78607B689B6843F0080239
:102690007B689A600C37BD465DF8047B704700BFCD
:1026A00080B485B000AF78600023FB737B689B68C3
:1026B00003F00803002B02D00123FB7301E0002389
:1026C000FB73FB7B18461437BD465DF8047B7047EF
:1026D00080B483B000AF78607B689B6843F00402ED
:1026E0007B689A600C37BD465DF8047B704700BF7D
:1026F00080B485B000AF78600023FB737B689B6873
:1027000003F00403002B02D00123FB7301E000233C
:10271000FB73FB7B18461437BD465DF8047B70479E
:1027200080B483B000AF78600B46FB70FB78002B61
:1027300006D07B689B6843F4A0027B689A6005E042
:102740007B689B6823F4A0027B689A600C37BD46C7
:102750005DF8047B704700BF80B485B000AF78603F
:10276000084611461A460346FB700B46BB701346DB
:102770007B700023FB600023BB60FB78092B23D90F
:102780007B68DB68FB60FB78A3F10A0213465B0001
:102790001344072202FA03F3BB60BB68DB43FA6809
:1027A0001340FB607978FB78A3F10A0213465B00C3
:1027B000134401FA03F3BB60FA68BB681343FB6080
:1027C0007B68FA68DA601EE07B681B69FB60FA7858
:1027D00013465B001344072202FA03F3BB60BB6895
:1027E000DB43FA681340FB607978FA7813465B00A4
:1027F000134401FA03F3BB60FA68BB681343FB6040
:102800007B68FA681A61BB78062B21D87B685B6B02
:10281000FB60BB785A1E13469B0013441F2202FA2A
:1028200003F3BB60BB68DB43FA681340FB60F978D5
:10283000BB785A1E13469B00134401FA03F3BB6096
:10284000FA68BB681343FB607B68FA685A6347E029
:10285000BB780C2B21D87B681B6BFB60BB78DA1F25
:1028600013469B0013441F2202FA03F3BB60BB68AC
:10287000DB43FA681340FB60F978BB78DA1F134634
:102880009B00134401FA03F3BB60FA68BB6813436F
:10289000FB607B68FA681A6322E07B68DB6AFB6096
:1028A000BB78A3F10D0213469B0013441F2202FACA
:1028B00003F3BB60BB68DB43FA681340FB60F97845
:1028C000BB78A3F10D0213469B00134401FA03F3F6
:1028D000BB60FA68BB681343FB607B68FA68DA6226
:1028E0001437BD465DF8047B704700BF80B483B0E9
:1028F00000AF78607B68DB6C9BB218460C37BD4636
:102900005DF8047B704700BF80B485B000AF78608D
:102910000B46FB700023FB737B681A68FB7813403F
:10292000002B02D00123FB7301E00023FB73FB7B30
:1029300018461437BD465DF8047B704780B58CB0EF
:1029400000AF786039600023FB620023BB62002384
:102950007B6200233B620023FB617B68FB617B6839
:102960001B8A9BB2FB62FA6A4CF6FF731340FB6250
:102970003B68DB881A46FB6A1343FB62FB6A9AB228
:102980007B681A827B689B899BB2FB62FA6A4EF66F
:10299000F3131340FB623B689A883B681B8913431F
:1029A0009AB23B685B8913439BB21A46FB6A134396
:1029B000FB62FB6A9AB27B689A817B689B8A9BB2B6
:1029C000FB62FA6A4FF6FF431340FB623B689B8948
:1029D0001A46FB6A1343FB62FB6A9AB27B689A82CF
:1029E00007F108031846FFF73FFCFB692E4A9342A4
:1029F00002D17B69BB6201E03B69BB627B689B895A
:102A00009BB29BB21BB2002B0CDABA6A13469B0036
:102A100013449A001A443B681B685B00B2FBF3F353
:102A20007B620BE0BA6A13469B0013449A001A4477
:102A30003B681B689B00B2FBF3F37B627B6A1B4A1B
:102A4000A2FB03235B091B01FB62FB6A1B096422D7
:102A500002FB03F37A6AD31A3B627B689B899BB2C1
:102A60009BB21BB2002B0CDA3B6ADB0032330F4AFD
:102A7000A2FB03235B0903F00703FA6A1343FB621B
:102A80000BE03B6A1B013233084AA2FB03235B09BC
:102A900003F00F03FA6A1343FB62FB6A9AB27B6886
:102AA0001A813037BD4680BD003801401F85EB518B
:102AB00080B483B000AF78600B46FB70FB78002BCE
:102AC00008D07B689B899BB243F400539AB27B6821
:102AD0009A8107E07B689B899BB223F400539AB2EA
:102AE0007B689A810C37BD465DF8047B704700BF58
:102AF00080B487B000AF78600B467B8013467B7054
:102B000000233B610023FB600023BB6000237B614B
:102B10007B687B617B88DBB25B09DBB23B617B88D6
:102B200003F01F03FB60FB68012202FA03F3BB60A2
:102B30003B69012B03D17B690C337B6109E03B6965
:102B4000022B03D17B6910337B6102E07B69143374
:102B50007B617B78002B06D07B697A691168BA6843
:102B60000A431A6006E07B697A691168BA68D24341
:102B70000A401A601C37BD465DF8047B704700BFF1
:102B800080B483B000AF78600B467B807B88C3F352
:102B900008039AB27B689A800C37BD465DF8047BC7
:102BA000704700BF80B483B000AF78607B689B88BB
:102BB0009BB2C3F308039BB218460C37BD465DF8C1
:102BC000047B704780B485B000AF78600B467B8093
:102BD0000023FB737B681B889AB27B8813409BB2EF
:102BE000002B02D00123FB7301E00023FB73FB7B6E
:102BF00018461437BD465DF8047B704780B485B035
:102C000000AF78600B4B1B68002B02D1094B0A4ABE
:102C10001A60084B1B68FB60064B1A687B681344FC
:102C2000044A1360FB6818461437BD465DF8047B00
:102C3000704700BF7C0A00208810002080B584B057
:102C400000AF786039607B68DB6AFB60FA683B68DC
:102C50009A424BD07B681B79002B32D07B685A7824
:102C60007B68303310461946FA68012303F060F997
:102C70000346002B01D0012339E07B6800221A7142
:102C80007B681A6A7B689B691A44FB689A4218D968
:102C90007B68DB78FB7211E07B689B69FA68134400
:102CA000FB607B685A787B68303310461946FA68B7
:102CB000012303F03DF9FB7A013BFB72FB7A012B08
:102CC000EAD83B68002B11D07B685A787B68303398
:102CD000104619463A68012303F0C2F80346002B58
:102CE00001D0012303E07B683A68DA6200231846CA
:102CF0001037BD4680BD00BF80B584B000AF78609E
:102D000078680021FFF79AFF0346FB73FB7B002BDB
:102D100040F0A1807B681B78032B40F090807B689B
:102D20009B7A002B00F08B807B680022DA627B6844
:102D30003033184600214FF4007203F027FC7B6803
:102D400003F22E2355221A707B6803F22F23AA2246
:102D50001A707B68303352221A707B6831335222EA
:102D60001A707B68323361221A707B6833334122D8
:102D70001A707B6803F5057372221A707B6803F280
:102D8000152372221A707B6803F2162341221A70EF
:102D90007B6803F2172361221A707B6803F50673C0
:102DA0007A681269D2B21A707B6803F219237A68C2
:102DB000126992B2120A92B2D2B21A707B6803F20E
:102DC0001A237A681269120CD2B21A707B6803F265
:102DD0001B237A681269120ED2B21A707B6803F54F
:102DE00007737A68D268D2B21A707B6803F21D2327
:102DF0007A68D26892B2120A92B2D2B21A707B6822
:102E000003F21E237A68D268120CD2B21A707B6861
:102E100003F21F237A68D268120ED2B21A707B684E
:102E200059787B6803F130027B685B69084611467C
:102E30001A46012303F07CF87B6800229A727B68B3
:102E40005B7818460021002203F0F0F80346002BBF
:102E500001D00123FB73FB7B18461037BD4680BDB4
:102E600080B584B000AF786039603B68012B04D92D
:102E70007B68DA693B689A4201D80123C1E07B682C
:102E80001B6AFB607B681B78022B4FD0032B76D02C
:102E9000012B40F0B4803B689BB21A4613465B009E
:102EA0001344DA0F13445B107B817B895B0A9BB26E
:102EB0001A46FB68134478681946FFF7BFFE0346BD
:102EC000002B00D09BE07B89C3F308037A6813448E
:102ED00093F830303B817B8901337B817B895B0AAE
:102EE0009BB21A46FB68134478681946FFF7A6FEA2
:102EF0000346002B00D082E07B89C3F308037A6885
:102F0000134493F830301B029AB23B8913439BB2AF
:102F10003B813B6803F00103002B03D03B891B0975
:102F20009BB26EE03B89C3F30B036AE03B681A0A6D
:102F3000FB68134478681946FFF780FE0346002BB0
:102F400000D05CE03B689BB25B0003F4FF7301338D
:102F500030337A6813441B78DBB21B0299B23B68AA
:102F60009BB25B0003F4FF7330337A6813441B7821
:102F7000DBB29BB20A4613439BB29BB241E03B6873
:102F8000DA09FB68134478681946FFF757FE0346D1
:102F9000002B00D033E03B689BB29B0003F4FE7330
:102FA000033330337A6813441B78DBB21A063B686C
:102FB0009BB29B0003F4FE730233303379680B44F9
:102FC0001B78DBB21B0413433A6892B2920002F4FE
:102FD000FE720132303279680A441278D2B212029B
:102FE00013433A6892B2920002F4FE72303279686A
:102FF0000A441278D2B2134323F0704301E04FF039
:10300000FF3318461037BD4680BD00BF80B588B07D
:1030100000AFF860B9607A60BB68012B04D9FB6827
:10302000DA69BB689A4202D80223FB77EDE0FB68BD
:103030001B6ABB61FB681B78022B75D0032B00F069
:103040009C80012B40F0DC80BB689BB21A46134683
:103050005B001344DA0F13445B10FB82FB8A5B0AAC
:103060009BB21A46BB691344F8681946FFF7E6FDA0
:103070000346FB77FB7F002B00D0C3E0FB8AC3F342
:1030800008033033FA6813443B61BB6803F0010363
:10309000002B0DD03B691B78DBB203F00F03DAB2D3
:1030A0007B68DBB21B01DBB21343DBB2DBB201E0B6
:1030B0007B68DBB23A691370FB8A0133FB82FB68E1
:1030C00001221A71FB8A5B0A9BB21A46BB69134440
:1030D000F8681946FFF7B2FD0346FB77FB7F002B2C
:1030E00000D08FE0FB8AC3F308033033FA6813443F
:1030F0003B61BB6803F00103002B03D07B681B0915
:10310000DBB20EE03B691B78DBB223F00F03DAB2CF
:103110007B681B0ADBB203F00F03DBB21343DBB2A5
:10312000DBB23A6913706DE0BB681A0ABB691344DD
:10313000F8681946FFF782FD0346FB77FB7F002BFB
:1031400000D05FE0BB689BB25B0003F4FF733033D9
:10315000FA6813447A68D2B21A70BB689BB25B00FB
:1031600003F4FF7301333033FA6813447A6892B280
:10317000120A92B2D2B21A7044E0BB68DA09BB6993
:103180001344F8681946FFF759FD0346FB77FB7FA8
:10319000002B00D036E0BB689BB29B0003F4FE73AB
:1031A0003033FA6813447A68D2B21A70BB689BB2A3
:1031B0009B0003F4FE7301333033FA6813447A68DA
:1031C00092B2120A92B2D2B21A70BB689BB29B0042
:1031D00003F4FE7302333033FA6813447A68120C36
:1031E000D2B21A70BB689BB29B0003F4FE73033328
:1031F0003033FA6813447A68120ED2B21A7001E0C2
:103200000223FB77FB6801221A71FB7F18462037E7
:10321000BD4680BD80B584B000AF786039603B6842
:10322000012B04D97B68DA693B689A4202D80223F1
:10323000FB7337E00023FB732FE078683968FFF7F2
:103240000FFEB860BB68002B00D12BE0BB68012BE0
:1032500002D10223FB7325E0BB68B3F1FF3F02D12B
:103260000123FB731EE0786839680022FFF7CEFE69
:103270000346FB73FB7B002B00D013E07B681B69CC
:10328000B3F1FF3F07D07B681B695A1C7B681A614A
:103290007B6801229A72BB683B607B68DA693B6895
:1032A0009A42CAD8FB7B18461037BD4680BD00BF86
:1032B00080B586B000AF786039607B68DB69FB6001
:1032C0003B68002B0CD17B68DB683B613B69002BC2
:1032D00003D03A69FB689A4214D301233B6111E0A1
:1032E00078683968FFF7BCFDB860BB68012B01D86E
:1032F00001235DE0BA68FB689A4201D2BB6857E0DF
:103300003B683B613B697B617B6901337B617A6927
:10331000FB689A4207D302237B617A693B699A4230
:1033200001D9002344E078687969FFF799FDB86016
:10333000BB68002B0AD100BF786879696FF07042D2
:10334000FFF764FE0346002B13D00FE0BB68B3F118
:10335000FF3F02D0BB68012B01D1BB6828E07A692E
:103360003B699A4201D1002322E0CDE74FF0FF33C1
:103370001EE03B68002B0AD0786839687A69FFF74D
:1033800045FE0346002B02D04FF0FF3310E07B6870
:103390007A69DA607B681B69B3F1FF3F07D07B680D
:1033A0001B695A1E7B681A617B6801229A727B69CD
:1033B00018461837BD4680BD80B483B000AF786032
:1033C00039603B68023B3B607B68DB699A1E3B6867
:1033D0009A4201D8002308E07B689B781A463B6834
:1033E00003FB02F27B689B6A134418460C37BD4608
:1033F0005DF8047B704700BF80B584B000AF786093
:103400000B467B807B687A885A807B689B68FB6070
:10341000FB68012B05D07B685B68DA69FB689A4220
:1034200001D8022356E0FB68002B11D17B685B6852
:103430001B897A889A4201D302234BE07B685B6840
:103440005B6A7A88120992B21A447B681A6136E084
:103450007B685B689B789BB21B017B811BE07B6870
:103460005B681846F968FFF7FBFCF860FB68B3F18E
:10347000FF3F01D101232DE0FB68012B05D97B68BB
:103480005B68DA69FB689A4201D8022322E07A88F5
:103490007B89D31A7B807A887B899A42DFD27B68CA
:1034A000FA68DA607B685B681846F968FFF784FFA2
:1034B00002467B881B099BB21A447B681A617B68B1
:1034C0005A687B8803F00F035B0130331A447B6832
:1034D0005A61002318461037BD4680BD90B585B0AF
:1034E00000AF78600B46FB707B685B8801333B81E3
:1034F0003B89002B03D07B681B69002B01D104237F
:10350000BCE03B8903F00F039BB2002B40F0A88086
:103510007B681B695A1C7B681A617B689B68002B5F
:1035200008D17B685B681B893A899A42C0F0988011
:103530000423A3E03B891B099BB21A467B685B68A6
:103540009B78013B1340002B40F08A807B685A68CF
:103550007B68DB6810461946FFF782FCF860FB6861
:10356000012B01D8022389E0FB68B3F1FF3F01D1B1
:10357000012383E07B685B68DA69FB689A4263D861
:10358000FB78002B01D1042378E07B685A687B68C4
:10359000DB6810461946FFF78BFEF860FB68002BCE
:1035A00001D107236AE0FB68012B01D1022365E00A
:1035B000FB68B3F1FF3F01D101235FE07B685B68EB
:1035C00018460021FFF73AFB0346002B01D00123E8
:1035D00054E07B685B683033184600214FF400727A
:1035E00002F0D4FF7B685C687B685B681846F9680A
:1035F000FFF7E2FE0346E3620023FB7216E07B68FE
:103600005B6801221A717B685B6818460021FFF72E
:1036100015FB0346002B01D001232FE07B685B687C
:10362000DA6A0132DA62FB7A0133FB727B685B682B
:103630009B78FA7A9A42E2D37B685B687A68526830
:10364000D16AFA7A8A1ADA627B68FA68DA607B6889
:103650005B681846F968FFF7AFFE02467B681A619F
:103660007B683A895A807B685A683B8903F00F036C
:103670005B0130331A447B685A61002318461437C3
:10368000BD4690BD80B586B000AF7860FF23BB75A6
:10369000BB7D7B757B689B69DB7A3B757B685A6871
:1036A0007B681B6910461946FFF7C8FA0346FB758D
:1036B000FB7D002B00D030E07B685B693B613B69A0
:1036C0001B78FB73FB7B002B02D10423FB7524E0EA
:1036D0003B690B331B7803F03F03BB73FB7BE52B8C
:1036E00012D0FB7B2E2B0FD0BB7B03F00803002BEB
:1036F0000AD17B689B69386919460B2202F09EFE4D
:103700000346002B00D108E078680021FFF7E6FEB1
:103710000346FB75FB7D002BC0D0FB7D1846183798
:10372000BD4680BD80B586B000AF7860FF23BB7515
:10373000BB7D7B750423FB7535E07B685A687B682D
:103740001B6910461946FFF779FA0346FB75FB7DA6
:10375000002B00D02BE07B685B693B613B691B78E9
:10376000FB73FB7B002B02D10423FB751FE03B693D
:103770000B331B7803F03F03BB73FB7BE52B08D0B7
:10378000FB7B2E2B05D0BB7B03F00803002B00D165
:103790000DE078680021FFF7A1FE0346FB75FB7D75
:1037A000002B00D003E07B681B69002BC5D1FB7D9B
:1037B000002B02D07B6800221A61FB7D1846183767
:1037C000BD4680BD80B584B000AF786078680021C8
:1037D000FFF712FE0346FB73FB7B002B20D17B68B7
:1037E0005A687B681B6910461946FFF727FA03469B
:1037F000FB73FB7B002B00D012E07B685B691B78BE
:10380000BB73BB7BE52B0BD0BB7B002B08D0786850
:103810000121FFF763FE0346FB73FB7B002BDED029
:10382000FB7B002B29D17B685A687B681B6910469B
:103830001946FFF703FA0346FB73FB7B002B1CD1F1
:103840007B685B69BB60B8680021202202F09EFEA5
:103850007B689B69B86819460B2202F021FEBB68A1
:103860000C337A6892690B32127802F01802D2B2E5
:103870001A707B685B6801221A71FB7B184610374F
:10388000BD4680BD80B584B000AF78607B685B8842
:1038900078681946FFF7B0FD0346FB73FB7B002BEE
:1038A00014D17B685A687B681B6910461946FFF77C
:1038B000C5F90346FB73FB7B002B07D17B685B6973
:1038C000E5221A707B685B6801221A71FB7B18463F
:1038D0001037BD4680BD00BF80B58AB000AF7860AC
:1038E00039607B689B697B61786920210B2202F03B
:1038F0004DFE002387F826300023BB61BB69FB61C6
:1039000008233B623B681B683B61FB695A1CFA61F8
:103910001A463B6913441B7887F8273097F82730FD
:103920001F2B40F2A58097F827302F2B00F0A080A6
:1039300097F827305C2B00F09B8097F827302E2BD0
:1039400003D0BA693B6A9A4212DB3B6A082B03D167
:1039500097F827302E2B01D00623C9E00823BB613E
:103960000B233B6297F826309B0087F826307EE0D9
:1039700097F827305BB2002B05DA97F8263043F032
:10398000030387F8263097F82730802B03D997F860
:1039900027309F2B07D997F82730DF2B31D997F89D
:1039A0002730FC2B2DD8FB695A1CFA611A463B695B
:1039B00013441B78FB73FB7B3F2B02D9FB7B7E2BD5
:1039C00006D9FB7B5BB2002B07DAFB7BFC2B04D810
:1039D0003B6A5A1EBB699A4201DC062388E0BB6938
:1039E0005A1CBA611A467B69134497F827201A704B
:1039F000BB695A1CBA611A467B691344FA7B1A7078
:103A000035E097F827303C48194602F061FE03463E
:103A1000002B01D006236BE097F82730402B0AD902
:103A200097F827305A2B06D897F8263043F0020330
:103A300087F8263012E097F82730602B0ED997F8D8
:103A400027307A2B0AD897F8263043F0010387F8FD
:103A5000263097F82730203B87F82730BB695A1C5F
:103A6000BA611A467B69134497F827201A704CE70D
:103A7000FB693A691A443B681A6097F827301F2B94
:103A800001D8042300E0002387F82730BB69002B0E
:103A900001D106232CE07B691B78E52B02D17B69E1
:103AA00005221A703B6A082B04D197F826309B0038
:103AB00087F8263097F8263003F00303012B05D151
:103AC00097F8273043F0100387F8273097F826300F
:103AD00003F00C03042B05D197F8273043F00803BB
:103AE00087F827307B690B3397F827201A7000235B
:103AF00018462837BD4680BD90EE000880B584B0DA
:103B000000AF786039603B681B782F2B03D03B688F
:103B10001B785C2B02D13B6801333B607B685B68A0
:103B20001B78032B03D17B685B685B6A00E0002392
:103B30007A6893603B681B781F2B09D8786800214E
:103B4000FFF75AFC0346FB737B6800225A6160E072
:103B500078680021FFF750FC0346FB73FB7B002BCA
:103B600000D056E03B4678681946FFF7B5FE03469D
:103B7000FB73FB7B002B00D04BE07868FFF782FDE6
:103B80000346FB737B689B69DB7ABB73FB7B002B73
:103B90000BD0FB7B042B07D1BB7B03F00403002B72
:103BA00002D10523FB7334E033E0BB7B03F0040355
:103BB000002B00D02DE07B685B69BB60BB680B33DA
:103BC0001B7803F01003002B02D10523FB7320E0C8
:103BD000BB6815331B78DBB21B029AB2BB68143387
:103BE0001B78DBB29BB213439BB29BB21B04BA6837
:103BF0001B321278D2B2120291B2BA681A3212781B
:103C0000D2B292B20A4392B292B21A437B689A60DD
:103C10009EE7FB7B18461037BD4680BD80B582B05D
:103C200000AF786039607B685A787B683033104623
:103C300019463A68012302F013F90346002B01D01C
:103C4000032334E07B6803F22F231B78DBB21B02D3
:103C50009AB27B6803F22E231B78DBB29BB213432C
:103C60009BB21BB2144A934201D002231FE07B682F
:103C7000663318461149032202F0E0FB0346002B8D
:103C800001D1002313E07B68823318460C490522DA
:103C900002F0D4FB0346002B08D17B6893F8583020
:103CA000DBB25BB2002B01DB002300E001231846EE
:103CB0000837BD4680BD00BF55AAFFFFA0EE000833
:103CC000A4EE000880B58EB000AFF860B96013466E
:103CD000FB71FB681B687B627B6A1B78303B87F853
:103CE000373097F83730092B0BD87B6A01331B78B4
:103CF0003A2B06D17B6A02337B62FB687A6A1A60D0
:103D000002E0002387F8373097F83730002B01D0D6
:103D10000B234EE297F837304B4A52F823303B6280
:103D2000BB683A6A1A603B6A002B01D10C2340E25F
:103D30003B6A1B78002B17D03B6A5B78184602F071
:103D400079F80346FB77FB7F03F00103002B0BD1CF
:103D5000FB79002B06D0FB7F03F00403002B01D07E
:103D60000A2326E2002324E23B6A00221A703B6AFF
:103D700097F837205A703B6A5B78184601F086FF47
:103D80000346FB77FB7F03F00103002B01D00323E5
:103D90000FE2FB79002B06D0FB7F03F00403002B1E
:103DA00001D00A2305E200233B63386A396BFFF731
:103DB00035FF034687F8363097F83630012B26D189
:103DC0003B6A03F5F773BB61BB6904331B78002BB7
:103DD0001DD0BB690B331B78DBB21A06BB690A33F3
:103DE0001B78DBB21B041343BA6909321278D2B2D2
:103DF00012021343BA6908321278D2B213433B63FA
:103E0000386A396BFFF70AFF034687F8363097F8B0
:103E10003630032B01D10123CBE197F83630002B4C
:103E200010D13B6A3C331B78DBB21B029AB23B6A6F
:103E30003B331B78DBB29BB213439BB21BB2B3F58F
:103E4000007F03D00D23B4E1800A00203B6A473392
:103E50001B78DBB21B029AB23B6A46331B78DBB29B
:103E60009BB213439BB29BB2FB62FB6A002B16D141
:103E70003B6A57331B78DBB21A063B6A56331B7812
:103E8000DBB21B0413433A6A55321278D2B21202E3
:103E900013433A6A54321278D2B21343FB623B6A3C
:103EA000FA6A9A613B6A93F840203B6ADA703B6A8F
:103EB000DB781A46FB6A02FB03F3FB623B6A3F3383
:103EC0001B78DBB21B029AB23B6A3E331B78DBB233
:103ED0009BB213439BB29BB21A463B6B1A443B6A9C
:103EE0001A623B6A93F83D203B6A9A703B6A423300
:103EF0001B78DBB21B029AB23B6A41331B78DBB200
:103F00009BB213439BB29AB23B6A1A813B6A443319
:103F10001B78DBB21B029AB23B6A43331B78DBB2DD
:103F20009BB213439BB29BB2BB62BB6A002B16D100
:103F30003B6A53331B78DBB21A063B6A52331B7859
:103F4000DBB21B0413433A6A51321278D2B2120226
:103F500013433A6A50321278D2B21343BB623B6ABF
:103F60003F331B78DBB21B029AB23B6A3E331B78AD
:103F7000DBB29BB213439BB29BB21A46BB6A9A1A3E
:103F8000FB6AD31A3A6A1289120992B29B1A3A6AE8
:103F90009278B3FBF2F302337B613B6A7A69DA61B0
:103FA000012387F836307B6940F6F672934202D9D6
:103FB000022387F836307B694FF6F672934202D9B6
:103FC000032387F8363097F83630032B18D13B6A35
:103FD0005F331B78DBB21A063B6A5E331B78DBB2B9
:103FE0001B0413433A6A5D321278D2B212021343B1
:103FF0003A6A5C321278D2B21A433B6A5A6205E0DE
:104000003B6A1A6AFB6A1A443B6A5A623B6A1A6A3A
:10401000FB6A13443A6A1289120992B21A443B6A43
:104020009A623B6A4FF0FF321A613B6A00221A71B2
:1040300097F83630032B40F0A8803B6A61331B7839
:10404000DBB21B029AB23B6A60331B78DBB29BB2D5
:1040500013439BB29BB21A463B6B1A443B6A5A61AC
:104060003B6A00229A723B6A59783B6A03F130023C
:104070003B6A5B69084611461A46012301F0F0FECF
:104080000346002B40F081803B6A03F22F231B780C
:10409000DBB21B029AB23B6A03F22E231B78DBB21F
:1040A0009BB213439BB21BB2444A93426DD13B6A0D
:1040B00033331B78DBB21A063B6A32331B78DBB230
:1040C0001B0413433A6A31321278D2B212021343FC
:1040D0003A6A30321278D2B21343394A934254D1F9
:1040E0003B6A03F217231B78DBB21A063B6A03F222
:1040F00016231B78DBB21B0413433A6A02F2152223
:104100001278D2B2120213433A6A02F5057212789B
:10411000D2B213432B4A934237D13B6A03F21F2397
:104120001B78DBB21A063B6A03F21E231B78DBB254
:104130001B0413433A6A02F21D221278D2B2120211
:1041400013433A6A02F507721278D2B21A433B6AF5
:10415000DA603B6A03F21B231B78DBB21A063B6A68
:1041600003F21A231B78DBB21B0413433A6A02F2F0
:1041700019221278D2B2120213433A6A02F5067279
:104180001278D2B21A433B6A1A613B6A0022DA62A1
:104190003B6A97F836201A700B4B1B8801339AB292
:1041A000094B1A80084B1A883B6ADA800023FB749B
:1041B000FB7C18463837BD4680BD00BF55AAFFFFBF
:1041C0005252614172724161840A002080B582B00E
:1041D00000AF78600B467B807B68002B08D07B6843
:1041E0001B78002B04D07B68DB887A889A4201D048
:1041F00009230CE07B685B78184601F01BFE034640
:1042000003F00103002B01D0032300E00023184634
:104210000837BD4680BD00BF80B485B000AF0346FF
:104220003960FB71FB79002B01D00B2316E0FB7981
:104230000D4A52F82330FB60FB68002B02D0FB686C
:1042400000221A703B68002B02D03B6800221A70D3
:10425000FB7905493A6841F82320002318461437B2
:10426000BD465DF8047B7047800A002080B592B09F
:1042700000AFF860B9601346FB71FB6800221A605A
:10428000FB7903F01F03FB71FB7903F01E03DAB225
:1042900007F1080107F11C03043308461946FFF72C
:1042A00011FD034687F8473097F84730002B02D0BE
:1042B00097F8473058E107F110037B63BB6807F1BB
:1042C0001C0210461946FFF719FC034687F84730D1
:1042D000FB7903F01C03002B00F0D08097F84730E7
:1042E000002B19D097F84730042B07D107F11C0396
:1042F0001846FFF767FA034687F8473097F84730C4
:10430000002B02D097F847302EE1FB7943F00803E9
:10431000FB713B6B3B6483E0FB7903F00403002BF0
:1043200001D0082320E13B6B3B643B6C002B06D0A3
:104330003B6C0B331B7803F01103002B01D00723D8
:1043400012E1FB7903F00803002B69D03B6C1533B5
:104350001B78DBB21B029AB23B6C14331B78DBB2C6
:104360009BB213439BB29BB21B043A6C1B32127874
:10437000D2B2120291B23A6C1A321278D2B292B21E
:104380000A4392B292B21343FB633B6C1433002294
:104390001A703B6C153300221A703B6C1A330022E2
:1043A0001A703B6C1B3300221A703B6C1C330022CA
:1043B0001A703B6C1D3300221A703B6C1E330022B6
:1043C0001A703B6C1F3300221A703B6A01221A716B
:1043D0003B6ADB6ABB63FB6B002B12D03B6A18465F
:1043E000F96BFEF717FF034687F8473097F8473019
:1043F000002B02D097F84730B6E03B6AFA6B013ADF
:10440000DA603B6A1846B96BFEF718FC034687F87A
:10441000473097F84730002B02D097F84730A3E099
:10442000FB7903F00803002B27D03B6C0B330022F1
:104430001A7001F0C1F9B8633B6C0E33BA6BD2B29B
:104440001A703B6C0F33BA6B92B2120A92B2D2B2AC
:104450001A703B6C1033BA6B120CD2B21A703B6CF0
:104460001133BA6B120ED2B21A703B6A01221A7162
:10447000FB7943F02003FB7123E022E097F84730FB
:10448000002B02D097F847306EE03B6B3B643B6CEF
:10449000002B06D03B6C0B331B7803F01003002B72
:1044A00001D0042360E0FB7903F00203002B08D065
:1044B0003B6C0B331B7803F00103002B01D0072367
:1044C00052E03B6ADA6AFB68DA613A6BFB681A62AF
:1044D000FB68FA799A713B6C15331B78DBB21B02CF
:1044E0009AB23B6C14331B78DBB29BB213439BB282
:1044F0009BB21B043A6C1B321278D2B2120291B2F8
:104500003A6C1A321278D2B292B20A4392B292B292
:104510001A43FB681A613B6C1F331B78DBB21A0627
:104520003B6C1E331B78DBB21B0413433A6C1D3209
:104530001278D2B2120213433A6C1C321278D2B201
:104540001A43FB68DA60FB6800229A60FB68FF226E
:10455000DA71FB6800229A613A6AFB681A603B6A6A
:10456000DA88FB689A80002318464837BD4680BD2C
:1045700080B58CB000AFF860B9607A603B60BB6812
:104580007B623B6800221A60FB681A68FB689B88A4
:1045900010461946FFF71AFE034687F8233097F8AE
:1045A0002330002B02D097F823302EE1FB689B7953
:1045B000DBB25BB2002B01DA022326E1FB689B79B8
:1045C00003F00103002B01D107231EE1FB68DA6829
:1045D000FB689B68D31AFB617A68FB699A4201D930
:1045E000FB697B600CE1FB689B68C3F30803002B4D
:1045F00040F0D880FB68DA79FB681B689B789A42A8
:104600002FD3FB689B68002B02D1FB681B6908E075
:10461000FB681A68FB685B6910461946FEF720FCC8
:1046200003467B617B69012B08D8FB689B7963F0AB
:104630007F03DAB2FB689A710223E6E07B69B3F18B
:10464000FF3F08D1FB689B7963F07F03DAB2FB6818
:104650009A710123D9E0FB687A695A61FB680022EC
:10466000DA71FB681A68FB685B6910461946FEF749
:10467000A3FEB861BB69002B08D1FB689B7963F08E
:104680007F03DAB2FB689A710223BEE0FB68DB7934
:104690001A46BB691344BB617B685B0ABB62BB6A99
:1046A000002B33D0FB68DB791A46BB6A1344FA68E7
:1046B00012689278934207D9FB681B689B781A4668
:1046C000FB68DB79D31ABB62FB681B685A78BB6A4C
:1046D000DBB21046796ABA6901F0C2FB0346002BCF
:1046E00008D0FB689B7963F07F03DAB2FB689A71AC
:1046F00001238AE0FB68DA79BB6ADBB21344DAB2E1
:10470000FB68DA71BB6A5B02FB6265E0FB689B7960
:1047100003F04003002B20D0FB681B685978FB682E
:1047200003F12402FB689B69084611461A460123DF
:1047300001F0FEFB0346002B08D0FB689B7963F079
:104740007F03DAB2FB689A7101235EE0FB689B7914
:1047500023F04003DAB2FB689A71FB689A69BB697F
:104760009A4216D0FB681B685A78FB6824331046BF
:104770001946BA69012301F073FB0346002B08D0E8
:10478000FB689B7963F07F03DAB2FB689A710123BF
:104790003BE0FB68BA699A61FB68DB790133DAB206
:1047A000FB68DA71FB689B68C3F30803C3F5007309
:1047B000FB62FA6A7B689A4201D97B68FB62FB68FC
:1047C0009B68C3F308032033FA6813440433786A00
:1047D0001946FA6A01F064FE7A6AFB6A13447B6246
:1047E000FB689A68FB6A1A44FB689A603B681A681F
:1047F000FB6A1A443B681A607A68FB6AD31A7B60CA
:104800007B68002B7FF4EFAE002318463037BD469F
:1048100080BD00BF80B58AB000AFF860B9607A6033
:104820003B60BB68BB613B6800221A60FB681A688A
:10483000FB689B8810461946FFF7C8FC0346FB75CA
:10484000FB7D002B01D0FB7D5BE1FB689B79DBB23C
:104850005BB2002B01DA022353E1FB689B7903F082
:104860000203002B01D107234BE1FB68DA687B6868
:104870001A44FB68DB689A4201D200237B602AE17C
:10488000FB689B68C3F30803002B40F0EF80FB68D4
:10489000DA79FB681B689B789A4240D3FB689B6877
:1048A000002B10D1FB681B697B627B6A002B13D144
:1048B000FB681B6818460021FEF7FAFC7862FB686B
:1048C0007A6A1A6108E0FB681A68FB685B6910463F
:1048D0001946FEF7EDFC78627B6A002B00D1FEE002
:1048E0007B6A012B08D1FB689B7963F07F03DAB206
:1048F000FB689A71022304E17B6AB3F1FF3F08D1A0
:10490000FB689B7963F07F03DAB2FB689A7101233D
:10491000F7E0FB687A6A5A61FB680022DA71FB688B
:104920009B7903F04003002B20D0FB681B6859786B
:10493000FB6803F12402FB689B69084611461A468E
:10494000012301F0F5FA0346002B08D0FB689B79A0
:1049500063F07F03DAB2FB689A710123D1E0FB6850
:104960009B7923F04003DAB2FB689A71FB681A68FE
:10497000FB685B6910461946FEF71EFD38613B690E
:10498000002B08D1FB689B7963F07F03DAB2FB68E8
:104990009A710223B5E0FB68DB791A463B69134440
:1049A0003B617B685B0AFB61FB69002B33D0FB68D2
:1049B000DB791A46FB691344FA68126892789342CD
:1049C00007D9FB681B689B781A46FB68DB79D31A0A
:1049D000FB61FB681B685A78FB69DBB21046B9695A
:1049E0003A6901F0A5FA0346002B08D0FB689B79D1
:1049F00063F07F03DAB2FB689A71012381E0FB6800
:104A0000DA79FB69DBB21344DAB2FB68DA71FB696D
:104A10005B023B624BE0FB689A693B699A421CD09F
:104A2000FB689A68FB68DB689A4216D2FB681B68D1
:104A30005A78FB682433104619463A69012301F07D
:104A40000FFA0346002B08D0FB689B7963F07F03C5
:104A5000DAB2FB689A71012353E0FB683A699A6104
:104A6000FB68DB790133DAB2FB68DA71FB689B68BB
:104A7000C3F30803C3F500733B623A6A7B689A424A
:104A800001D97B683B62FB689B68C3F30803203352
:104A9000FA68134404331846B9693A6A01F000FD14
:104AA000FB689B7943F04003DAB2FB689A71BA69FC
:104AB0003B6A1344BB61FB689A683B6A1A44FB6813
:104AC0009A603B681A683B6A1A443B681A607A68C5
:104AD0003B6AD31A7B607B68002B7FF4D1AEFB6806
:104AE0009A68FB68DB689A4203D9FB689A68FB689E
:104AF000DA60FB689B7943F02003DAB2FB689A71B5
:104B0000002318462837BD4680BD00BF80B586B05B
:104B100000AF78607B681A687B689B8810461946EE
:104B2000FFF754FB0346FB75FB7D002B40F0AB8089
:104B30007B689B7903F02003002B00F0A4807B6846
:104B40009B7903F04003002B19D07B681B685978D0
:104B50007B6803F124027B689B69084611461A466C
:104B6000012301F0E5F90346002B01D001238BE07E
:104B70007B689B7923F04003DAB27B689A717B688B
:104B80001A687B68DB6910461946FEF757F803463A
:104B9000FB75FB7D002B76D17B681B6A3B613B6913
:104BA0000B333A690B32127842F02002D2B21A70FB
:104BB0003B691C337A68D268D2B21A703B691D33E4
:104BC0007A68D26892B2120A92B2D2B21A703B6973
:104BD0001E337A68D268120CD2B21A703B691F3346
:104BE0007A68D268120ED2B21A703B691A337A68A8
:104BF0001269D2B21A703B691B337A68126992B299
:104C0000120A92B2D2B21A703B6914337A681269EE
:104C1000120CD2B21A703B6915337A681269120C01
:104C200092B2120A92B2D2B21A7000F0C5FDF860C8
:104C30003B691633FA68D2B21A703B691733FA68C7
:104C400092B2120A92B2D2B21A703B691833FA6861
:104C5000120CD2B21A703B691933FA68120ED2B232
:104C60001A707B689B7923F02003DAB27B689A7113
:104C70007B681B6801221A717B681B681846FEF767
:104C80003BF80346FB75FB7D18461837BD4680BDD3
:104C900080B584B000AF78607868FFF737FF0346CF
:104CA000FB73FB7B002B02D17B6800221A60FB7B2D
:104CB00018461037BD4680BD80B588B000AF78601B
:104CC00039607B681A687B689B8810461946FFF735
:104CD0007DFA0346FB75FB7D002B01D0FB7D52E185
:104CE0007B689B79DBB25BB2002B01DA02234AE1DD
:104CF0007B68DA683B689A4208D27B689B7903F04C
:104D00000203002B02D17B68DB683B607B689B68F9
:104D10003B617B6800229A607B68FF22DA71002386
:104D2000BB613B68002B00F0CD807B681B689B78E3
:104D30005B02FB603B69002B1BD03B685A1EFB6883
:104D4000B2FBF3F23B69591EFB68B1FBF3F39A42E5
:104D50000FD33B695A1EFB685B421A407B689A601E
:104D60007B689B683A68D31A3B607B685B69FB6130
:104D70002BE07B681B69FB61FB69002B22D17B6800
:104D80001B6818460021FEF793FAF861FB69012BB6
:104D900008D17B689B7963F07F03DAB27B689A71F4
:104DA0000223F0E0FB69B3F1FF3F08D17B689B79F8
:104DB00063F07F03DAB27B689A710123E3E07B68DA
:104DC000FA691A617B68FA695A61FB69002B79D02C
:104DD00045E07B689B7903F00203002B0CD07B68D5
:104DE0001B681846F969FEF763FAF861FB69002B46
:104DF00009D1FB683B6036E07B681B681846F9699F
:104E0000FEF72EF8F861FB69B3F1FF3F08D17B682C
:104E10009B7963F07F03DAB27B689A710123B2E079
:104E2000FB69012B05D97B681B68DA69FB699A422B
:104E300008D87B689B7963F07F03DAB27B689A714C
:104E40000223A0E07B68FA695A617B689A68FB6874
:104E50001A447B689A603A68FB68D31A3B603A68E8
:104E6000FB689A42B5D87B689A683B681A447B68AD
:104E70009A603B685B0ADAB27B68DA713B68C3F31D
:104E80000803002B1ED07B681B681846F969FEF7E3
:104E900093FAB861BB69002B08D17B689B7963F0FA
:104EA0007F03DAB27B689A7102236CE07B68DB795E
:104EB0001A46BB691344BB617B68DB790133DAB204
:104EC0007B68DA71BB69002B4BD07B689A69BB6940
:104ED0009A4246D07B689B68C3F30803002B40D0FE
:104EE0007B689B7903F04003002B20D07B681B6814
:104EF00059787B6803F124027B689B690846114658
:104F00001A46012301F014F80346002B08D07B68F1
:104F10009B7963F07F03DAB27B689A71012332E0F8
:104F20007B689B7923F04003DAB27B689A717B68D7
:104F30001B685A787B68243310461946BA690123E6
:104F400000F08EFF0346002B08D07B689B7963F04E
:104F50007F03DAB27B689A71012314E07B68BA6937
:104F60009A617B689A687B68DB689A420AD97B6899
:104F70009A687B68DA607B689B7943F02003DAB239
:104F80007B689A71FB7D18462037BD4680BD00BF07
:104F9000B0B596B000AF78603A1D07F13003043326
:104FA000104619460122FEF78DFE034687F857305A
:104FB00097F85730002B02D097F85730A3E007F14D
:104FC0000803BB647B6807F1300210461946FEF700
:104FD00095FD034687F8573097F85730002B02D0DD
:104FE00097F857308FE07B6C3B653B6D002B01D110
:104FF000062388E03B6D0B331B7803F00103002B85
:1050000001D007237FE03B6D15331B78DBB21B0219
:105010009AB23B6D14331B78DBB29BB213439BB245
:105020009BB21B043A6D1B321278D2B2120291B2BB
:105030003A6D1A321278D2B292B20A4392B292B256
:105040001343FB643B6D0B331B7803F01003002B01
:1050500036D0FB6C012B01D8022354E007F1140475
:1050600007F130050FCD0FC495E8070084E807006D
:10507000FB6CFB6107F1140318460021FEF7BCF935
:10508000034687F8573097F85730002B02D097F82F
:10509000573038E007F114031846FEF743FB034688
:1050A00087F8573097F85730002B02D1072387F83D
:1050B000573097F85730042B02D097F8573022E03A
:1050C00007F130031846FEF7DDFB034687F857303B
:1050D00097F85730002B15D1FB6C002B07D07B6B5A
:1050E0001846F96CFEF796F8034687F8573097F89C
:1050F0005730002B06D17B6B1846FDF7FDFD0346AC
:1051000087F85730002318465837BD46B0BD00BF5A
:1051100080B588B000AFF860B9607A600023FB61A9
:10512000FB68BB6114E007F114037868B9690122D8
:10513000FFF71EFA7B69012B00D00EE0FB690133FB
:10514000FB61BB695A1CBA611B780A2B00D104E0D1
:10515000BB685A1EFB699A42E5DCBB6900221A70E3
:10516000FB69002B01D0FB6800E0002318462037C4
:10517000BD4680BD80B500AF08200121FDF726F9AE
:10518000064B1022DA70054B01221A80034B0322D2
:105190009A7003480149FBF7B1FB80BD3010002035
:1051A000000C014080B582B000AF604B01225A6113
:1051B0000220FBF71FF85D4B01221A615C4B48226D
:1051C000DA705A485A49FBF799FB00237B6002E0EA
:1051D0000220FBF72FF8554B9B6803F00103002BCF
:1051E00004D07B685A1C7A60C72BF1D97B68322BBC
:1051F00001D9012395E000237B6002E00120FBF749
:1052000019F84A4B9B6803F00103002B04D17B681B
:105210005A1C7A60632BF1D97B68072B02D97B6813
:105220000F2B01D902237CE000237B6002E00120E8
:10523000FBF700F83D4B9B6803F00103002B04D003
:105240007B685A1C7A60632BF1D97B68072B02D9E3
:105250007B680F2B01D9032363E00023FB7049E037
:1052600000237B6002E00120FAF7E4FF2F4B9B68EC
:1052700003F00103002B04D17B685A1C7A60132BC6
:10528000F1D97B68102B15D9FB782A4A4FF6FF71AC
:1052900022F8131002E00120FAF7CCFF234B9B68A1
:1052A00003F00103002B22D07B685A1C7A60132B79
:1052B000F1D91CE000237B6002E00120FAF7BAFF7D
:1052C0001A4B9B6803F00103002B04D07B685A1C27
:1052D0007A60132BF1D9FB787A680F2A02D87A68A2
:1052E00092B201E04FF6FF72124921F81320FB78C9
:1052F0000133FB70FB78272BB2D90023FB700CE045
:10530000FB780C4A32F813304FF6FF72934201D10A
:10531000042306E0FB780133FB70FB78272BEFD9E1
:10532000002318460837BD4680BD00BF000C014071
:10533000301000203410002080B483B000AF002370
:10534000FB71554B00221A7015E0534B1B785B0024
:10535000DAB2514B1A70FB79504A32F81330072BEE
:1053600006D94D4B1B7843F00103DAB24A4B1A7051
:10537000FB790133FB71FB79072BE6D9484B0022FF
:105380001A7015E0464B1B785B00DAB2444B1A707A
:10539000FB79424A32F81330072B06D9404B1B7871
:1053A00043F00103DAB23E4B1A70FB790133FB7113
:1053B000FB790F2BE6D93B4B00221A7015E0394BD5
:1053C0001B785B00DAB2374B1A70FB79334A32F83C
:1053D0001330072B06D9334B1B7843F00103DAB2A5
:1053E000304B1A70FB790133FB71FB79172BE6D92F
:1053F0002D4B00221A7015E02B4B1B785B00DAB2A4
:10540000294B1A70FB79254A32F81330072B06D93D
:10541000254B1B7843F00103DAB2234B1A70FB795A
:105420000133FB71FB791F2BE6D915E01F4B1B786D
:105430005B00DAB21D4B1A70FB79184A32F8133050
:10544000072B06D9194B1B7843F00103DAB2174B2F
:105450001A70FB790133FB71FB79272BE6D90E4BD0
:105460001A780F4B1B781344DAB20E4B1B78134497
:10547000DAB20D4B1B781344BB710C4B1B781B022B
:105480009AB2BB799BB213439BB29BB218460C37BE
:10549000BD465DF8047B70478C0A00203410002064
:1054A0008D0A00208E0A00208F0A0020900A00201A
:1054B00080B400AF074B1B789BB21B029AB2064B1D
:1054C0001B789BB213449BB21846BD465DF8047B23
:1054D000704700BF8C0A00208D0A002080B400AF06
:1054E000074B1B789BB21B029AB2064B1B789BB2F0
:1054F00013449BB21846BD465DF8047B704700BF5D
:105500008E0A00208F0A002080B487B000AF786038
:1055100000237B6100233B610F23FB607B68DB780A
:10552000002B3AD0274BDB68DB4303F4E0631B0A14
:105530007B617B69C3F104033B617B69FA6822FAF2
:1055400003F3FB607B685B781A463B6902FA03F35E
:105550007B617B689B781A46FB6813407A6913432A
:105560007B617B691B017B61174A7B681B787969CA
:10557000C9B213440A4683F80023134A7B681B7898
:105580005B09DBB218467B681B7803F01F0301211F
:1055900001FA03F342F820300FE00B497B681B78D7
:1055A0005B09DBB218467B681B7803F01F030122FE
:1055B0009A4000F1200341F823201C37BD465DF8D6
:1055C000047B704700ED00E000E100E080B582B0B0
:1055D00000AF78607B68174A93420AD14FF480503D
:1055E0000121FCF72FFF4FF480500021FCF72AFF28
:1055F0001CE07B68104A93420AD14FF4804001219D
:10560000FCF73EFF4FF480400021FCF739FF0DE02E
:105610007B680A4A934209D14FF400400121FCF70C
:105620002FFF4FF400400021FCF72AFF0837BD464A
:1056300080BD00BF0030014000380040003C004009
:1056400080B485B000AF786039600023FB817B684F
:105650001B88FB81FB8903F44153FB813B681A885B
:105660003B685B8813439AB23B689B8813439AB2AA
:105670003B68DB8813439AB23B681B8913439AB299
:105680003B685B8913439AB23B689B8913439AB288
:105690003B68DB8913439AB2FB891343FB817B6828
:1056A000FA891A807B689B8B9BB223F400639AB2C1
:1056B0007B689A833B681A8A7B681A821437BD46D6
:1056C0005DF8047B704700BF80B483B000AF7860A2
:1056D0000B46FB70FB78002B08D07B681B889BB2C5
:1056E00043F040039AB27B681A8007E07B681B880E
:1056F0009BB223F040039AB27B681A800C37BD46F8
:105700005DF8047B704700BF80B483B000AF786061
:105710000B467B807B687A889A810C37BD465DF8A2
:10572000047B704780B483B000AF78607B689B894E
:105730009BB218460C37BD465DF8047B704700BF2E
:1057400080B483B000AF78600B46FB70FB78002B11
:1057500008D07B681B889BB243F400539AB27B68E5
:105760001A8007E07B681B889BB223F400539AB22F
:105770007B681A800C37BD465DF8047B704700BF1C
:1057800080B485B000AF78600B467B800023FB734C
:105790007B681B899AB27B8813409BB2002B02D096
:1057A0000123FB7301E00023FB73FB7B18461437D6
:1057B000BD465DF8047B704780B584B000AF3B46C2
:1057C0001846FAF793FF3B88A3F2BC735A06BB78DE
:1057D0005B051A43FB781B0413437A7992B2D20219
:1057E00092B21343BA7992B2520192B21343FA7948
:1057F0005208D2B21343FB60FB6818461037BD460F
:1058000080BD00BF80B483B000AF084B1B889BB243
:105810007B607B6843F038037B60044B7A6892B20C
:105820001A800C37BD465DF8047B7047003001409C
:1058300080B483B000AF094B1B889BB27B607B6850
:1058400023F0380343F008037B60044B7A6892B27C
:105850001A800C37BD465DF8047B7047003001406C
:1058600080B582B000AF0346FB71FB799BB20A485A
:105870001946FFF749FF00BF07480121FFF780FFE6
:105880000346002BF8D00448FFF74CFF0346DBB279
:1058900018460837BD4680BD0030014080B500AFD6
:1058A000FF20FFF7DDFF0346184680BD80B582B0BC
:1058B00000AF0A4B32221A60FFF7F0FFFFF7EEFF4E
:1058C0000346FB71FB79FF2B03D0044B1B68002BB5
:1058D000F4D1FB7918460837BD4680BD980A0020F0
:1058E00080B500AF03481021FBF7FCF8FFF7D6FFA7
:1058F00080BD00BF0008014080B588B000AF41F214
:1059000024000121FCF762FD08233B811423FB7274
:105910000323BB7207F1080335481946FAF7EEFF77
:1059200033480821FBF7ECF8324B19221A6000BF0C
:10593000304B1B68002BFBD110233B811023FB72E3
:105940000323BB7207F1080329481946FAF7D6FF6B
:1059500027481021FBF7C6F8A0233B810323BB7225
:105960001823FB7207F1080321481946FAF7C6FF0E
:1059700040233B810323BB724823FB7207F10803DA
:105980001B481946FAF7BAFF0023BB814FF4827314
:10599000FB8100233B8200237B820023BB824FF4E8
:1059A0000073FB8238233B8300237B830723BB8365
:1059B00007F10C0310481946FFF742FE0E4800217C
:1059C000FFF7BEFE0C480121FFF77EFE00BF0A482C
:1059D0000221FFF7D5FE0346002BF8D00648FFF75B
:1059E000A1FE0346DBB2FB712037BD4680BD00BF80
:1059F00000080140940A00200030014080B582B0C8
:105A000000AF1A481021FBF77BF8FFF74FFFFFF7B5
:105A100067FF1748FFF7DAFD15480021FFF754FE2E
:105A20004FF480500021FCF7D1FCE023BB8003231E
:105A3000BB712823FB713B1D0C481946FAF75EFF2A
:105A40001023BB803B1D09481946FAF757FF07484A
:105A50000821FBF747F8074B1B78DBB243F0010343
:105A6000DAB2044B1A700837BD4680BD0008014009
:105A7000003001402800002080B500AF0548082113
:105A8000FBF716F80346012B14BF01230023DBB2FA
:105A9000184680BD0008014090B585B000AF786021
:105AA0003960214B0A221A60FFF7F8FE0346FB73A8
:105AB000FB7BFF2B03D11C4B1B68002BF4D1FB7B22
:105AC000FE2B01D000232AE07C68631C7B60FF2052
:105AD000FFF7C6FE034623707C68631C7B60FF20D3
